:1000000003308A008E2B0000FF00030E8301A10045
:100010000A08A0008A010408A2007708A300780853
:10002000A4007908A5007A08A60003170D08031399
:10003000A70003170F080313A80003170C080313E6
:10004000A90003170E080313AA00831383128B1D44
:100050002B280B184C28220884002308F7002408BA
:10006000F8002508F9002608FA00270803178D0074
:100070000313280803178F000313290803178C00A4
:1000800003132A0803178E00031320088A00210E89
:100090008300FF0E7F0E09008A110A12CC2A0A1073
:1000A0008A100A1182070C340434063402340334F3
:1000B0000134093408344F308400831300080319D5
:1000C0006F280130F800F701F70B6428F80B63285C
:1000D0004A30F700F70B6A286D28800B612808006A
:1000E0008316081088100811831288100F308316A9
:1000F0000805F03888008312081500000814000075
:100100000808F700080E0F39F8007808D600081024
:100110000000081400000808F700080E0F39F80066
:100120007808D50008100F30831608058800831260
:10013000560EF700F030F70577085504F8007808F8
:10014000D500D51B7628531C88105318881400003E
:10015000081100000810540ED5000F30D5055508C1
:10016000D600560EF039F7000F30080577048800E6
:1001700000000814BB28081054080F39D500550892
:10018000D600560EF039F7000F30080577048800C6
:1001900000000814CB28081008004E08073A03197D
:1001A000DB280B3A0319F028063A0319F828023A1B
:1001B00003190E2913290130CF00D000500BE1287C
:1001C000E4284030D100E528D10101304F02D107A9
:1001D00051088038D200D3015208D4007020182969
:1001E000D3010130D40070200230CF005B201829E9
:1001F0000130CF000230D000500BFF2802294030E0
:10020000D1000329D10101304F02D10751088038B4
:10021000D200D3015208D40070201829D301103025
:10022000D400702018290130D3004E08D40070206B
:1002300008000B08C8008B13831603178C170C14C7
:100240000000000083120313C81B8B1703170C0850
:100250007F3903196D290313C80003170D08031311
:10026000C90003170F080313CA004808CE00CD20A9
:10027000490803178D0003134A0803178F0003135F
:100280000B08CB008B13831603178C170C1400007C
:10029000000083120313CB1B8B1703170C0D0E0DDD
:1002A0007F3903196D290313C80003170D080313C1
:1002B000C90003170F080313CA004808CE00CD2059
:1002C000490803178D0003134A0803178F008D0A8E
:1002D00003198F0A031319290317031308000B08C6
:1002E000C9008B13831603178C170C140000000031
:1002F00083120313C91B8B170318A62903170C08B5
:100300007F390313C90003170D080313CA0003172D
:100310000F080313CB004908CE00CD204A0803176D
:100320008D0003134B0803178F0003130B08CC0039
:100330008B13831603178C170C1400000000831214
:100340000313CC1B8B17C80BA629C52903170C0D4B
:100350000E0D7F390313C90003170D080313CA00DC
:1003600003170F080313CB004908CE00CD204A081D
:1003700003178D0003134B0803178F008D0A031911
:100380008F0A03100313C80B6F2908004F08F801E8
:100390004E020318CE294E08F700DA29F70108307B
:1003A000D000CE0DF70D4F0877020318F700F80DB7
:1003B000D00BD12908002030491E3030CA0048082F
:1003C000F700C81FEB29F709F70A7708C8002D3096
:1003D000CA00C91749144808CE006430CF00C621AE
:1003E0007708C80030307807CB004808CE000A30C4
:1003F000CF00C62130307707CD0030307807CC00F1
:100400004A08F70030304B0203190A2AC914C91BE5
:1004100049151E2A4A08CB002030CA0030304C0251
:100420000319162A4914C91BC9141E2A031D49148D
:10043000031D1E2A4B08CC002030CB004919252A69
:10044000C918282A49182B2A2E2A4A08CE00CD205E
:100450004B08CE00CD204C08CE00CD204D08CE005C
:10046000CD200800C7014708033C031CC12A2F30D8
:10047000470784008313000BBF2A4708FC3E03187C
:10048000922A043EC42AAD010130CF00D000500BA7
:100490004A2A4D2A4030D1004E2AD10101304F0264
:1004A000D10751088038D200D3015208D4007020FF
:1004B0000B3003178D0003308F0003131921922A8C
:1004C0001430AC00AC080319682A1430AC006A2A56
:1004D0000130AC07922A0130AD00CF00D000500BA4
:1004E000722A752A4030D100762AD10101304F029C
:1004F000D10751088038D200D3015208D4007020AF
:10050000143003178D0003308F0003131921922A32
:100510000A30AC00AC080319902A0A30AC00922AC9
:100520000130AC020130CF000230D000500B992ACC
:100530009C2A4030D1009D2AD10101304F02D107C1
:1005400051088038D200D3015208D40070201C30EA
:1005500003178D0003308F00031009300313C80008
:100560006F212C08C8001130C900DB212030CE00DB
:10057000CD206D30CE00CD207330CE00CD20C70A07
:10058000332A8A110A12F52A0A108A140A118207DC
:10059000432A602A6B2A882A1430CF005B2004305B
:1005A000C6004608073C031CF22A0608F700460866
:1005B000F8000319DF2A0310F70CF80BDB2A771871
:1005C000EA2A043046022F3E840083130130800063
:1005D000AE00F02A043046022F3E840083138001CF
:1005E000C60AD12A2E0BF62A322AAE010B108A1126
:1005F0000A122B288C296537F434E437A01E2029F1
:10060000E933683A00008A29F0326532A01EA01250
:100610003232A03673008C296537F434E437A01EDB
:100620002029E933683A00018C296537F434E4372E
:10063000A01E2026653374008A29F0326532A01E80
:10064000A0123232A03673002830B7000C30B80048
:100650000130B9000630BA000810881008110F30B8
:100660008316080588000810881008118312AB0152
:100670008B1BAB178B130F30CF005B20AB1B8B1783
:100680000130B6003608033C031C5E2B0330D60055
:10069000560EF039F7000F30080577048800000087
:1006A0000814522B0810AB018B1BAB178B130530B2
:1006B000CF005B20AB1B8B17B60A422B0230D60053
:1006C000560EF039F7000F30080577048800000057
:1006D00008146A2B0810AB018B1BAB178B1305306A
:1006E000CF005B20AB1B8B17B6013608033C031C05
:1006F0008B2B37303607840083130008BB00AB0117
:100700008B1BAB178B13D3013B08D4007020AB1BA2
:100710008B17B60A752B8A110A12AB2B03081F39E7
:1007200083000F30AC00AD01AE01B401B3018316FC
:100730001F149F141F159F1107309C0083138312F1
:10074000AF01B001B101B201F030831687000C3067
:1007500083128700242B0B10C0308B048B15FA30CA
:1007600003178D0002308F000313AB018B1BAB17F7
:100770008B131921AB1B8B17033003178D0003302C
:100780008F0003100313AB018B1BAB178B130930C6
:10079000C8006F21AB1B8B17AB018B1BAB178B13E7
:1007A0002C08C8001130C900DB21AB1B8B17AB0133
:1007B0008B1BAB178B132030CE00CD20AB1B8B17C0
:1007C000AB018B1BAB178B136D30CE00CD20AB1B59
:1007D0008B17AB018B1BAB178B137330CE00CD2067
:1007E000AB1B8B17B50135084F20F8008700AB0114
:1007F0008B1BAB178B132C08CF005B20AB1B8B170D
:10080000AD01AD0803190C2C3508073C031D0A2C5B
:10081000B5010B2CB50A132CB508031D122C07309B
:0A082000B500132CB503F32B6300A1
:02400E00713F00
:00000001FF
;PIC16F877A
;CRC=232C  CREATED="21-dic.-25 18:24"
