:1000000001308A00AF2900000A108A100A11820705
:100010003134323433344134343435343634423488
:1000200037343834393443342A3430342334413487
:100030000C26C929D4272E172E0500000C26C92905
:10004000D4272E172E0500002A30840083130008C1
:10005000031938280130F800F701F70B2D28F80BA9
:100060002C284A30F700F70B33283628800B2A2833
:100070000800300EF039F7000F30070577048700CD
:10008000000007144328071008000708F700070EB0
:100090000F39F80008008316071087100711831224
:1000A00087100F3083160705F03887008312071575
:1000B00000000714000045207808B0000710000079
:1000C0000714000045207808AF0007100F30831692
:1000D000070587008312300EF700F030F705770828
:1000E0002F04F8007808AF00AF1B51282D1C871093
:1000F0002D18871400000711000007102E0EAF0006
:100100000F30AF052F08B00039202E080F39AF008F
:10011000B000392008002830A6000C30A7000130BC
:10012000A8000630A9000710871007110F308316AA
:10013000070587000710871007110F308312AA00E8
:1001400024200130A5002508033C031CAF28033000
:10015000B00039200530AA002420A50AA3280230C7
:10016000B00039200530AA002420A5012508033C51
:10017000031CC62826302507840083130008AA0024
:10018000AD012A08AE004B20A50AB6288A110A1232
:10019000BF292A0BCC28CF284030AB00D028AB0198
:1001A00001302902AB072B088038AC00AD012C08C8
:1001B000AE004B2008002808073A0319E9280B3A3B
:1001C0000319EE28063A0319F628023A0319FC2807
:1001D00001290130A900AA00C9200629AD0101307A
:1001E000AE004B200230AA00242006290130A900CD
:1001F0000230AA00C9200629AD011030AE004B2004
:1002000006290130AD002808AE004B2008000B087D
:10021000A5008B13831603178C170C140000000025
:1002200083120313A51B8B1703170C087F390319BF
:100230005B290313A50003170D080313A60003177A
:100240000F080313A7002508A800DB2026080317C2
:100250008D000313270803178F0003130B08A80052
:100260008B13831603178C170C14000000008312E5
:100270000313A81B8B1703170C0D0E0D7F390319E1
:100280005B290313A50003170D080313A60003172A
:100290000F080313A7002508A800DB202608031772
:1002A0008D000313270803178F008D0A03198F0A87
:1002B00003130729031703130800A7010F30831640
:1002C0008600FF3083128600A80126082802031842
:1002D000AA2925082807AA000130F7002A08F800F3
:1002E000031976290310F70DF80B72297708FF3AE6
:1002F0008605A90125082902031899290608F7008F
:100300002908F800031988290310F70CF80B842931
:1003100077189729280DF700F70DFC30F7057708B7
:1003200029070420F800A7001430AA002420A90AF5
:100330007A2925082807AA000130F7002A08F800C2
:100340000319A6290310F70DF80BA22977088604D4
:10035000A80A65292708F8008A110A12CF2903087C
:100360001F398300A101A00183161F149F141F15BC
:100370009F1107309C008313811383128B28183040
:1003800003178D0000308F00031307210430A200F3
:10039000A300A4012208A5002308A6005D2978086F
:1003A000A400A4080319EA292408443C031DE029F9
:1003B0001E3003178D0000308F0003130721E3293F
:1003C0002408A800DB200230A5009630AA002420D3
:0803D000A50BE529CA29630011
:02400E00713F00
:00000001FF
;PIC16F877A
;CRC=1F28  CREATED="12-dic.-25 06:02"
